{
  "_format": "hh-sol-artifact-1",
  "contractName": "DAO",
  "sourceName": "contracts/DAO.sol",
  "abi": [
    {
      "inputs": [
        {
          "internalType": "address",
          "name": "_DaoToken",
          "type": "address"
        },
        {
          "internalType": "uint256",
          "name": "_votingDuration",
          "type": "uint256"
        }
      ],
      "stateMutability": "nonpayable",
      "type": "constructor"
    },
    {
      "anonymous": false,
      "inputs": [
        {
          "indexed": true,
          "internalType": "uint256",
          "name": "proposalId",
          "type": "uint256"
        }
      ],
      "name": "ProposalCancelled",
      "type": "event"
    },
    {
      "anonymous": false,
      "inputs": [
        {
          "indexed": true,
          "internalType": "uint256",
          "name": "proposalId",
          "type": "uint256"
        },
        {
          "indexed": false,
          "internalType": "address",
          "name": "proposer",
          "type": "address"
        },
        {
          "indexed": false,
          "internalType": "address[]",
          "name": "targetContracts",
          "type": "address[]"
        },
        {
          "indexed": false,
          "internalType": "uint256[]",
          "name": "values",
          "type": "uint256[]"
        },
        {
          "indexed": false,
          "internalType": "string[]",
          "name": "targetsLength",
          "type": "string[]"
        },
        {
          "indexed": false,
          "internalType": "bytes[]",
          "name": "calldatas",
          "type": "bytes[]"
        },
        {
          "indexed": false,
          "internalType": "uint256",
          "name": "startBlock",
          "type": "uint256"
        },
        {
          "indexed": false,
          "internalType": "uint256",
          "name": "endBlock",
          "type": "uint256"
        },
        {
          "indexed": false,
          "internalType": "string",
          "name": "description",
          "type": "string"
        }
      ],
      "name": "ProposalCreated",
      "type": "event"
    },
    {
      "anonymous": false,
      "inputs": [
        {
          "indexed": true,
          "internalType": "uint256",
          "name": "proposalId",
          "type": "uint256"
        }
      ],
      "name": "ProposalExecuted",
      "type": "event"
    },
    {
      "anonymous": false,
      "inputs": [
        {
          "indexed": true,
          "internalType": "uint256",
          "name": "proposalId",
          "type": "uint256"
        },
        {
          "indexed": true,
          "internalType": "address",
          "name": "Voter",
          "type": "address"
        },
        {
          "indexed": false,
          "internalType": "enum IDAO.VoteType",
          "name": "support",
          "type": "uint8"
        }
      ],
      "name": "Voted",
      "type": "event"
    },
    {
      "inputs": [],
      "name": "DaoToken",
      "outputs": [
        {
          "internalType": "contract IERC20",
          "name": "",
          "type": "address"
        }
      ],
      "stateMutability": "view",
      "type": "function"
    },
    {
      "inputs": [
        {
          "internalType": "uint256",
          "name": "",
          "type": "uint256"
        }
      ],
      "name": "_proposalVotes",
      "outputs": [
        {
          "internalType": "uint256",
          "name": "againVotes",
          "type": "uint256"
        },
        {
          "internalType": "uint256",
          "name": "forVotes",
          "type": "uint256"
        }
      ],
      "stateMutability": "view",
      "type": "function"
    },
    {
      "inputs": [
        {
          "internalType": "uint256",
          "name": "",
          "type": "uint256"
        }
      ],
      "name": "_proposals",
      "outputs": [
        {
          "internalType": "uint256",
          "name": "voteStart",
          "type": "uint256"
        },
        {
          "internalType": "uint256",
          "name": "voteEnd",
          "type": "uint256"
        },
        {
          "internalType": "bool",
          "name": "executed",
          "type": "bool"
        },
        {
          "internalType": "bool",
          "name": "cancelled",
          "type": "bool"
        },
        {
          "internalType": "enum IDAO.State",
          "name": "proposalState",
          "type": "uint8"
        }
      ],
      "stateMutability": "view",
      "type": "function"
    },
    {
      "inputs": [
        {
          "internalType": "uint256",
          "name": "proposalId",
          "type": "uint256"
        },
        {
          "internalType": "address[]",
          "name": "targets",
          "type": "address[]"
        },
        {
          "internalType": "uint256[]",
          "name": "values",
          "type": "uint256[]"
        },
        {
          "internalType": "bytes[]",
          "name": "calldatas",
          "type": "bytes[]"
        },
        {
          "internalType": "bytes32",
          "name": "descriptionHash",
          "type": "bytes32"
        }
      ],
      "name": "execute",
      "outputs": [
        {
          "internalType": "bool",
          "name": "execution",
          "type": "bool"
        }
      ],
      "stateMutability": "nonpayable",
      "type": "function"
    },
    {
      "inputs": [
        {
          "internalType": "uint256",
          "name": "proposalId",
          "type": "uint256"
        },
        {
          "internalType": "address",
          "name": "voter",
          "type": "address"
        }
      ],
      "name": "hasVoted",
      "outputs": [
        {
          "internalType": "bool",
          "name": "",
          "type": "bool"
        }
      ],
      "stateMutability": "view",
      "type": "function"
    },
    {
      "inputs": [
        {
          "internalType": "address[]",
          "name": "targets",
          "type": "address[]"
        },
        {
          "internalType": "uint256[]",
          "name": "values",
          "type": "uint256[]"
        },
        {
          "internalType": "bytes[]",
          "name": "calldatas",
          "type": "bytes[]"
        },
        {
          "internalType": "bytes32",
          "name": "descriptionHash",
          "type": "bytes32"
        }
      ],
      "name": "hashProposal",
      "outputs": [
        {
          "internalType": "uint256",
          "name": "",
          "type": "uint256"
        }
      ],
      "stateMutability": "pure",
      "type": "function"
    },
    {
      "inputs": [],
      "name": "numProposals",
      "outputs": [
        {
          "internalType": "uint256",
          "name": "",
          "type": "uint256"
        }
      ],
      "stateMutability": "view",
      "type": "function"
    },
    {
      "inputs": [
        {
          "internalType": "address[]",
          "name": "targets",
          "type": "address[]"
        },
        {
          "internalType": "uint256[]",
          "name": "values",
          "type": "uint256[]"
        },
        {
          "internalType": "bytes[]",
          "name": "calldatas",
          "type": "bytes[]"
        },
        {
          "internalType": "string",
          "name": "description",
          "type": "string"
        }
      ],
      "name": "propose",
      "outputs": [
        {
          "internalType": "uint256",
          "name": "",
          "type": "uint256"
        }
      ],
      "stateMutability": "nonpayable",
      "type": "function"
    },
    {
      "inputs": [
        {
          "internalType": "uint256",
          "name": "proposalId",
          "type": "uint256"
        }
      ],
      "name": "state",
      "outputs": [
        {
          "internalType": "enum IDAO.State",
          "name": "proposalState",
          "type": "uint8"
        }
      ],
      "stateMutability": "view",
      "type": "function"
    },
    {
      "inputs": [
        {
          "internalType": "uint256",
          "name": "proposalId",
          "type": "uint256"
        },
        {
          "internalType": "uint8",
          "name": "support",
          "type": "uint8"
        }
      ],
      "name": "vote",
      "outputs": [],
      "stateMutability": "nonpayable",
      "type": "function"
    },
    {
      "inputs": [],
      "name": "votingDuration",
      "outputs": [
        {
          "internalType": "uint256",
          "name": "",
          "type": "uint256"
        }
      ],
      "stateMutability": "view",
      "type": "function"
    }
  ],
  "bytecode": "0x608060405234801561001057600080fd5b506040516114aa3803806114aa83398101604081905261002f91610058565b600480546001600160a01b0319166001600160a01b039390931692909217909155600355610092565b6000806040838503121561006b57600080fd5b82516001600160a01b038116811461008257600080fd5b6020939093015192949293505050565b611409806100a16000396000f3fe608060405234801561001057600080fd5b50600436106100a95760003560e01c8063400e394911610071578063400e394914610191578063438596321461019a5780637d5e81e2146101ad578063943e8216146101c0578063b2dfd3b5146101d5578063c59057e41461021157600080fd5b80630a494840146100ae578063132002fc1461010c5780631730d8601461012357806334afcfed146101465780633e4f49e614610171575b600080fd5b6100f26100bc366004610bb9565b600160208190526000918252604090912080549181015460029091015460ff808216916101008104821691620100009091041685565b604051610103959493929190610bfc565b60405180910390f35b61011560035481565b604051908152602001610103565b610136610131366004610e72565b610224565b6040519015158152602001610103565b600454610159906001600160a01b031681565b6040516001600160a01b039091168152602001610103565b61018461017f366004610bb9565b610511565b6040516101039190610f0c565b61011560025481565b6101366101a8366004610f1a565b610606565b6101156101bb366004610f46565b610634565b6101d36101ce366004611007565b610918565b005b6101fc6101e3366004610bb9565b6000602081905290815260409020805460019091015482565b60408051928352602083019190915201610103565b61011561021f36600461103d565b610b7f565b60008061023386868686610b7f565b90508087146102955760405162461bcd60e51b815260206004820152602360248201527f676f7665726e6f723a2070726f706f73616c20494420646f65736e2774206d616044820152620e8c6d60eb1b60648201526084015b60405180910390fd5b60046102a088610511565b60048111156102b1576102b1610bd2565b146103155760405162461bcd60e51b815260206004820152602e60248201527f476f7665726e6f723a2070726f706f73616c206d75737420626520726561647960448201526d103337b91032bc32b1baba34b7b760911b606482015260840161028c565b60008781526020819052604090208054600182015410806103425750600181015415801561034257508054155b1561039757600088815260016020526040808220600201805461ff0019166101001790555189917f416e669c63d9a3a5e36ee7cc7e2104b8db28ccd286aa18966e98fa230c73b08c91a2600192505050610508565b6000888152600160208190526040808320600201805460ff19169092179091555189917f712ae1383f79ac853f8d882153778e0260ef8f03b504e2866e0593e04d2b291f91a28651600090156105045760008882815181106103fb576103fb6110cd565b60200260200101516001600160a01b031688838151811061041e5761041e6110cd565b6020026020010151888481518110610438576104386110cd565b602002602001015160405161044d9190611107565b60006040518083038185875af1925050503d806000811461048a576040519150601f19603f3d011682016040523d82523d6000602084013e61048f565b606091505b5050905080156104a6576001945050505050610508565b60405162461bcd60e51b815260206004820152602d60248201527f476f7665726e6f723a2063616c6c20726576657274656420776974686f75742060448201526c6572726f72206d65737361676560981b606482015260840161028c565b5050505b95945050505050565b6000818152600160205260408120439082600282015462010000900460ff16600481111561054157610541610bd2565b03610550575060009392505050565b80600101548210801561058157506001600282015462010000900460ff16600481111561057f5761057f610bd2565b145b15610590575060019392505050565b818160010154111580156105b35750600281015460ff6101009091041615156001145b156105c2575060039392505050565b8060010154821180156105da5750600281015460ff16155b80156105f057506002810154610100900460ff16155b156105ff575060049392505050565b5050919050565b6000828152602081815260408083206001600160a01b038516845260020190915290205460ff165b92915050565b600480546040516370a0823160e01b8152339281019290925260009182916001600160a01b0316906370a0823190602401602060405180830381865afa158015610682573d6000803e3d6000fd5b505050506040513d601f19601f820116820180604052508101906106a69190611139565b106107035760405162461bcd60e51b815260206004820152602760248201527f596f75206e6565642044616f20546f6b656e20746f20637265617465206120706044820152661c9bdc1bdcd85b60ca1b606482015260840161028c565b83518551146107245760405162461bcd60e51b815260040161028c90611152565b82518551146107455760405162461bcd60e51b815260040161028c90611152565b60008551116107965760405162461bcd60e51b815260206004820152601860248201527f476f7665726e6f723a20656d7074792070726f706f73616c0000000000000000604482015260640161028c565b60006107ab8686868680519060200120610b7f565b6000818152600160208190526040909120919250600282015462010000900460ff1660048111156107de576107de610bd2565b0361082b5760405162461bcd60e51b815260206004820152601c60248201527f476f7665726e616c3a204475706c69636174652070726f706f73616c00000000604482015260640161028c565b600354439060009061083d9083611193565b82845560018085018290556002808601805462ff000019166201000017905580549293509091600090610871908490611193565b92505081905550837f7d84a6263ae0d98d3329bd7b46bb4e8d6f98cd35a7adb45c274c8b7fd5ebd5e0338b8b8d5167ffffffffffffffff8111156108b7576108b7610c31565b6040519080825280602002602001820160405280156108ea57816020015b60608152602001906001900390816108d55790505b508c88888e60405161090398979695949392919061129b565b60405180910390a25091979650505050505050565b600480546040516370a0823160e01b815233928101929092526000916001600160a01b03909116906370a0823190602401602060405180830381865afa158015610966573d6000803e3d6000fd5b505050506040513d601f19601f8201168201806040525081019061098a9190611139565b116109e35760405162461bcd60e51b8152602060048201526024808201527f476f7665726e6f723a20596f75206e6565642044616f20746f6b656e20746f20604482015263766f746560e01b606482015260840161028c565b6109ed8233610606565b15610a3a5760405162461bcd60e51b815260206004820152601760248201527f476f7665726e6f723a20416c726561647920766f746564000000000000000000604482015260640161028c565b6001610a4583610511565b6004811115610a5657610a56610bd2565b14610aa35760405162461bcd60e51b815260206004820181905260248201527f476f7665726e6f723a2050726f706f73616c206973206e6f7420616374697665604482015260640161028c565b6000828152602081815260408083203384526002019091528120805460ff1916600117905560ff82169003610af7576000828152602081905260408120805460019290610af1908490611193565b90915550505b8060ff16600103610b2e5760016000808481526020019081526020016000206001016000828254610b289190611193565b90915550505b33827f094f80829c509370abb2d421a078ba5926755d3de25d021dacf7bbd19853f7a260ff84166001811115610b6657610b66610bd2565b604051610b73919061136e565b60405180910390a35050565b600084848484604051602001610b989493929190611388565b60408051601f19818403018152919052805160209091012095945050505050565b600060208284031215610bcb57600080fd5b5035919050565b634e487b7160e01b600052602160045260246000fd5b60058110610bf857610bf8610bd2565b9052565b858152602081018590528315156040820152821515606082015260a08101610c276080830184610be8565b9695505050505050565b634e487b7160e01b600052604160045260246000fd5b604051601f8201601f1916810167ffffffffffffffff81118282101715610c7057610c70610c31565b604052919050565b600067ffffffffffffffff821115610c9257610c92610c31565b5060051b60200190565b80356001600160a01b0381168114610cb357600080fd5b919050565b600082601f830112610cc957600080fd5b81356020610cde610cd983610c78565b610c47565b82815260059290921b84018101918181019086841115610cfd57600080fd5b8286015b84811015610d1f57610d1281610c9c565b8352918301918301610d01565b509695505050505050565b600082601f830112610d3b57600080fd5b81356020610d4b610cd983610c78565b82815260059290921b84018101918181019086841115610d6a57600080fd5b8286015b84811015610d1f5780358352918301918301610d6e565b600067ffffffffffffffff831115610d9f57610d9f610c31565b610db2601f8401601f1916602001610c47565b9050828152838383011115610dc657600080fd5b828260208301376000602084830101529392505050565b600082601f830112610dee57600080fd5b81356020610dfe610cd983610c78565b82815260059290921b84018101918181019086841115610e1d57600080fd5b8286015b84811015610d1f57803567ffffffffffffffff811115610e415760008081fd5b8701603f81018913610e535760008081fd5b610e64898683013560408401610d85565b845250918301918301610e21565b600080600080600060a08688031215610e8a57600080fd5b85359450602086013567ffffffffffffffff80821115610ea957600080fd5b610eb589838a01610cb8565b95506040880135915080821115610ecb57600080fd5b610ed789838a01610d2a565b94506060880135915080821115610eed57600080fd5b50610efa88828901610ddd565b95989497509295608001359392505050565b6020810161062e8284610be8565b60008060408385031215610f2d57600080fd5b82359150610f3d60208401610c9c565b90509250929050565b60008060008060808587031215610f5c57600080fd5b843567ffffffffffffffff80821115610f7457600080fd5b610f8088838901610cb8565b95506020870135915080821115610f9657600080fd5b610fa288838901610d2a565b94506040870135915080821115610fb857600080fd5b610fc488838901610ddd565b93506060870135915080821115610fda57600080fd5b508501601f81018713610fec57600080fd5b610ffb87823560208401610d85565b91505092959194509250565b6000806040838503121561101a57600080fd5b82359150602083013560ff8116811461103257600080fd5b809150509250929050565b6000806000806080858703121561105357600080fd5b843567ffffffffffffffff8082111561106b57600080fd5b61107788838901610cb8565b9550602087013591508082111561108d57600080fd5b61109988838901610d2a565b945060408701359150808211156110af57600080fd5b506110bc87828801610ddd565b949793965093946060013593505050565b634e487b7160e01b600052603260045260246000fd5b60005b838110156110fe5781810151838201526020016110e6565b50506000910152565b600082516111198184602087016110e3565b9190910192915050565b634e487b7160e01b600052601160045260246000fd5b60006020828403121561114b57600080fd5b5051919050565b60208082526021908201527f476f7665726e6f723a20696e76616c69642070726f706f73616c206c656e67746040820152600d60fb1b606082015260800190565b8082018082111561062e5761062e611123565b600081518084526020808501945080840160005b838110156111df5781516001600160a01b0316875295820195908201906001016111ba565b509495945050505050565b600081518084526020808501945080840160005b838110156111df578151875295820195908201906001016111fe565b600081518084526112328160208601602086016110e3565b601f01601f19169290920160200192915050565b600081518084526020808501808196508360051b8101915082860160005b8581101561128e57828403895261127c84835161121a565b98850198935090840190600101611264565b5091979650505050505050565b6001600160a01b03891681526101006020808301829052600091906112c28483018c6111a6565b915083820360408501526112d6828b6111ea565b915083820360608501528189518084528284019150828160051b850101838c0160005b8381101561132757601f1987840301855261131583835161121a565b948601949250908501906001016112f9565b5050868103608088015261133b818c611246565b9450505050508560a08401528460c084015282810360e084015261135f818561121a565b9b9a5050505050505050505050565b602081016002831061138257611382610bd2565b91905290565b60808152600061139b60808301876111a6565b82810360208401526113ad81876111ea565b905082810360408401526113c18186611246565b9150508260608301529594505050505056fea26469706673582212200176f811da9ea08d36bfa1017988ac574fb4cbedb05edb6cb546823f9e67f8c964736f6c63430008140033",
  "linkReferences": {},
  "deployedLinkReferences": {}
}